:020000040800F2
:10000000880900204D0200080B15000803150008A0
:1000100007150008450400088117000800000000CB
:100020000000000000000000000000000F150008A4
:1000300049040008000000000D1500081115000813
:1000400073020008730200087302000873020008BC
:1000500073020008730200084D04000873020008D0
:10006000790400088D040008730200087302000878
:10007000730200087302000873020008730200088C
:10008000730200087302000873020008730200087C
:10009000730200087302000873020008730200086C
:1000A000730200087302000873020008730200085C
:1000B000730200087302000873020008730200084C
:1000C000730200087302000873020008730200083C
:1000D0007302000871170008730200087302000819
:1000E000610400087302000873020008730200082C
:1000F000730200087302000873020008730200080C
:1001000073020008730200087302000873020008FB
:1001100073020008730200087302000873020008EB
:1001200073020008730200087302000873020008DB
:1001300073020008730200087302000873020008CB
:1001400073020008730200087302000873020008BB
:1001500073020008730200087302000873020008AB
:10016000730200087302000873020008730200089B
:100170007302000873020008730200080000000008
:10018000730200087302000873020008730200087B
:10019000730200087302000873020008730200086B
:1001A00073020008730200087302000800F002F8EE
:1001B00000F03CF80AA090E8000C82448344AAF1C5
:1001C0000107DA4501D100F031F8AFF2090EBAE8C3
:1001D0000F0013F0010F18BFFB1A43F0010318477B
:1001E0004819000068190000103A24BF78C878C187
:1001F000FAD8520724BF30C830C144BF04680C602D
:10020000704700000023002400250026103A28BF74
:1002100078C1FBD8520728BF30C148BF0B60704778
:100220001FB501F06FFC1FBD10B510BD00F0D7F871
:100230001146FFF7F5FF01F0DBFB00F0F5F803B422
:10024000FFF7F2FF03BC01F0B9FA0000DFF830005D
:10025000016841F4700101600A4880470A4800477C
:10026000FEE7FEE7FEE7FEE7FEE7FEE7FEE7FEE766
:10027000FEE7FEE705480649044A064B70470000C2
:1002800088ED00E019150008AD0100088801002084
:100290008809002088010020704753EA020C00F012
:1002A00069802DE9F04B4FF00006002B1FBFB3FA19
:1002B00083F503FA05F424FA05F65E4012BF1643EF
:1002C000B2FA82F502FA05F4C5F120051EBF22FA42
:1002D00005FC44EA0C04203556EA044C4FEA144469
:1002E00018BF641C4FF000084FF00009904271EBFA
:1002F000030C39D3002919BFB1FA81F701FA07F6C7
:10030000B0FA80F700FA07F6C7F120071EBF20FAFF
:1003100007FC46EA0C062037B6FBF4FCA7EB050702
:10032000103F07F01F0BCBF120060CFA0BFB2CFA49
:1003300006F644BFB3460026202FA4BF5E464FF00A
:10034000000B5BEA060C08BF4FF0010B19EB0B0921
:10035000ABFB027C48EB0608C01B06FB02CC0BFB88
:1003600003CC71EB0C01C1E70B46024641464846FF
:10037000BDE8F08B13B54FF000004FF00001AFF374
:100380000080BDE81C4070474FF0000200B51346E6
:1003900094469646203922BFA0E80C50A0E80C50A5
:1003A000B1F12001BFF4F7AF090728BFA0E80C5056
:1003B00048BF0CC05DF804EB890028BF40F8042B4F
:1003C00008BF704748BF20F8022B11F0804F18BFBC
:1003D00000F8012B704770477047704770477546AB
:1003E00000F02CF8AE4605006946534620F00700A1
:1003F000854618B020B5FFF73DFFBDE820404FF01F
:1004000000064FF000074FF000084FF0000B21F0FE
:100410000701AC46ACE8C009ACE8C009ACE8C009CB
:10042000ACE8C0098D46704710B50446AFF30080B4
:100430002046BDE81040FFF702BF000000487047AB
:100440002801002000BFFEE77047000010B5012022
:1004500000F0C4F801200149086010BD143C0140BF
:1004600010B54FF4005000F0B9F84FF400500149B6
:10047000086010BD143C014010B5042000F0AEF837
:1004800004200149086010BD143C014010B508204B
:1004900000F0A4F808200149086010BD143C014098
:1004A00070B50446A56D00F0C7F9064694F835000E
:1004B000022808D08020606500BF002084F8340046
:1004C00000BF012070BD2068006820F01600216880
:1004D00008602068406920F0800021684861206C35
:1004E00008B9A06C28B12068006820F008002168D5
:1004F00008602068006820F001002168086010E0B2
:1005000000F09AF9801B05280BD920206065032094
:1005100084F8350000BF002084F8340000BF0320B9
:10052000D0E72068006800F001000028E8D194F8C6
:100530005C103F208840A860012084F8350000BF8F
:10054000002084F8340000BF00BFBBE7014691F8EB
:100550003500022803D0802048650120704705201F
:1005600081F835000868006820F001000A68106012
:100570000020F3E710B504460A2001F027F9042C07
:1005800011D0082C03D0B4F5005F1FD114E008216E
:10059000104800F039F928B9002001F013FA0120C1
:1005A00001F010FA13E004210A4800F02DF910B907
:1005B000002001F007FA0AE04FF40051064800F06D
:1005C00023F910B9012001F0FDF900E000BF00BFE0
:1005D00010BD0000001C02400008024010B5044697
:1005E00004480068204020B1024804602046FFF71C
:1005F000C1FF10BD143C0140F8B502460B46002572
:10060000002400200021E0E0012606FA01F51E6822
:1006100006EA0504AC4274D11E7906F00306012EE9
:1006200004D01E7906F00306022E13D190684F0005
:100630000326BE40B0434F00DE68BE4030439060AA
:10064000506801268E40B0431E79C6F300168E40D6
:10065000304350601E7906F00306032E09D0D0689F
:100660004F000326BE40B0434F009E68BE4030435B
:10067000D0601E7906F00306022E13D1CF0802F1D6
:10068000200656F827004E07F70E0F26BE40B0434F
:100690004F07FF0E1E69BE403043CF0802F120060F
:1006A00046F8270010684F000326BE40B0431E796D
:1006B00006F003064F00BE40304310605E6806F44B
:1006C0004036002E1DD000BF00260096414E3668F1
:1006D00046F480463F4F3E603E46366806F480460C
:1006E000009600BF00BF3C4E8F0856F827008E07CB
:1006F000370F0F26BE40B043384EB24202D100261B
:100700002EE061E0364EB24201D1012628E0354E9E
:10071000B24201D1022623E0334EB24201D1032678
:100720001EE0324EB24201D1042619E0304EB242F0
:1007300001D1052614E02F4EB24201D106260FE06A
:100740002D4EB24201D107260AE02C4EB24201D111
:10075000082605E02A4EB24201D1092600E00A2609
:100760008F073F0FBE4030431B4E8F0846F82700CF
:10077000244E3068A0435E6806F4801606B120431C
:10078000204E3060361D3068A0435E6806F40016C7
:1007900006B120431B4E361D30601A4E361F30689E
:1007A000A0435E6806F4003606B12043154E361F9E
:1007B0003060361F3068A0435E6806F4803606B1AC
:1007C0002043104E083E3060491C1029FFF41CAF36
:1007D000F8BD0000443802400838014000000240E3
:1007E0000004024000080240000C024000100240D9
:1007F0000014024000180240001C02400020024089
:1008000000240240083C0140024613690B400BB132
:10081000012000E00020704710B5426921EA020380
:1008200002EA010443EA0443836110BD0AB1816115
:1008300001E00B04836170470148006870470000C5
:100840001000002003480068034909780844014962
:1008500008607047100000201800002010B50D48F7
:10086000006840F400700B4908600846006840F4D6
:10087000806008600846006840F4807008600520C9
:1008800000F080F80F2000F007F800F02BF80020AF
:1008900010BD0000003C024070B504460E480078D0
:1008A0004FF47A71B1FBF0F00C490968B1FBF0F537
:1008B000284600F029FC08B1012070BD102C07D299
:1008C00000222146501E00F01EF80548046001E099
:1008D0000120F2E70020F0E71800002000000020CF
:1008E00014000020704701460846002809DB00F08C
:1008F0001F0301229A4043099B0003F1E023C3F840
:10090000002100BF70472DE9F05F80460D46164676
:10091000002700F037FF074639462A46334601F0E4
:100920000700C0F1070ABAF1040F02D94FF0040A18
:1009300001E0C0F1070AD14600F1040ABAF1070F3D
:1009400002D24FF0000A01E0A0F1030AD4464FF0B2
:10095000010A0AFA09FAAAF1010A0AEA020A0AFADB
:100960000CFA4FF0010B0BFA0CFBABF1010B0BEA8D
:10097000030B4AEA0B042146404600F00BFFBDE89A
:10098000F09F000000BF00F00702064B19684FF609
:10099000FF031940044B0B4343EA0221014B19604A
:1009A00000BF70470CED00E00000FA0538B50024E8
:1009B00000BF002000901D48006840F080501B4997
:1009C00008600846006800F08050009000BF00BF3B
:1009D000012017490864FFF72FFF044607E0FFF7DF
:1009E0002BFF001BB0F57A7F01D9032038BD1148D9
:1009F000406800F48030B0F5803FF0D101200C4910
:100A00004864FFF719FF044607E0FFF715FF001BD6
:100A1000B0F57A7F01D90320E8E70648406800F482
:100A20000030B0F5003FF0D10020DFE74038024051
:100A300000000E420070004070B504460D460CB92F
:100A4000012070BD5848006800F00F00A84209D28C
:100A500055490D700846006800F00F00A84201D00B
:100A60000120EEE7207800F0020002281DD1207856
:100A700000F00400042805D14C48006840F4E05020
:100A80004A490860207800F00800082805D1474846
:100A9000006840F46040454908604448006820F020
:100AA000F000A168084341490860207800F0010087
:100AB000A8B36068012807D13C4808380068C0F333
:100AC0004040B8B90120BCE76068022802D06068E5
:100AD000032807D1354808380068C0F3406048B99A
:100AE0000120AEE7314808380068C0F3400008B97B
:100AF0000120A6E72D48006820F003006168084344
:100B00002A490860FFF798FE064609E0FFF794FEC1
:100B1000801B41F28831884202D9032091E707E027
:100B20002248006800F00C006168B0EB810FEDD145
:100B30001D48006800F00F00A84209D91A490D703D
:100B40000846006800F00F00A84201D0012078E7B5
:100B5000207800F00400042807D11448006820F42D
:100B6000E050E168084311490860207800F008006F
:100B7000082808D10D48006820F46040216940EA47
:100B8000C1000A49086000F019F808490968C1F372
:100B90000311074A515CC8400649086006480068CE
:100BA000FFF77AFE00204CE7003C02400838024084
:100BB0000E1B000800000020140000202DE9F04763
:100BC000002400250026A1462548006800F00C00FE
:100BD00020B1042805D008283AD105E0DFF8849038
:100BE00039E0DFF8849036E01D48001F006800F00F
:100BF0003F041B48001F006800F4800078B11A48C9
:100C00001749091F0968C1F38811A0FB017001464B
:100C1000224600233846FFF740FB05460EE0114808
:100C20000F49091F0968C1F38811A0FB0170014633
:100C3000224600233846FFF730FB05460848001FD0
:100C40000068C0F30140401C4600B5FBF6F902E025
:100C5000DFF8109000BF00BF4846BDE8F0870000F5
:100C6000083802400024F40040787D01F8B50446BD
:100C70000CB90120F8BD207800F00100002874D0E4
:100C8000F948006800F00C0004280DD0F648006810
:100C900000F00C00082813D1F348001F006800F48E
:100CA0008000B0F5800F0BD1EF4808380068C0F322
:100CB0004040002859D06068002856D10120D9E76B
:100CC00000BF6068B0F5803F08D1E7480838006889
:100CD00040F48030E449083908601EE06068B0F5EF
:100CE000A02F0DD1E0480838006840F48020DE498C
:100CF000083908600846006840F4803008600CE05D
:100D0000D9480838006820F48030D749083908608D
:100D10000846006820F48020086000BF606890B139
:100D2000FFF78AFD054606E0FFF786FD401B6428B5
:100D300001D903209EE7CC4808380068C0F3404042
:100D40000028F1D011E0FFF777FD054606E0FFF738
:100D500073FD401B642801D903208BE7C248083883
:100D60000068C0F340400028F1D1207800F0020074
:100D700002285FD1BC48006800F00C0058B1BA48A6
:100D8000006800F00C0008281CD1B748001F00685C
:100D900000F48000B0B9B44808380068C0F34000DF
:100DA00020B1E068012801D0012063E7AE4808388F
:100DB000006820F0F800216940EAC100AA4908391A
:100DC000086037E0E06800B30120A8490860FFF739
:100DD00033FD054606E0FFF72FFD401B022801D931
:100DE000032047E7A04808380068C0F34000002807
:100DF000F1D09D480838006820F0F800216940EAE9
:100E0000C10099490839086014E00020974908603A
:100E1000FFF712FD054606E0FFF70EFD401B022816
:100E200001D9032026E7904808380068C0F3400045
:100E30000028F1D1207800F0080008282CD1606942
:100E4000A8B101208A490860FFF7F6FC054606E0D4
:100E5000FFF7F2FC401B022801D903200AE7824871
:100E60006C300068C0F340000028F1D014E000208E
:100E70007F490860FFF7E0FC054606E0FFF7DCFC71
:100E8000401B022801D90320F4E677486C30006843
:100E9000C0F340000028F1D1207800F004000428BD
:100EA00070D1002770483830006800F0805090B949
:100EB00000BF002000906C483830006840F080503F
:100EC0006949383108600846006800F08050009099
:100ED00000BF00BF01276748006800F48070B0B908
:100EE0006448006840F4807062490860FFF7A4FC21
:100EF000054606E0FFF7A0FC401B022801D90320AD
:100F0000B8E65C48006800F480700028F2D000BFAA
:100F1000A068012808D154486830006840F00100FA
:100F20005149683108601DE0A06805280DD14E4880
:100F30006830006840F004004B496831086008469A
:100F4000006840F0010008600CE047486830006825
:100F500020F001004449683108600846006820F02C
:100F60000400086000BFA068A8B1FFF765FC054653
:100F700009E0FFF761FC401B41F28831884202D949
:100F8000032077E626E0384868300068C0F3400068
:100F90000028EED013E0FFF74FFC054608E0FFF70E
:100FA0004BFC401B41F28831884201D9032061E6A5
:100FB0002D4868300068C0F340000028EFD1012FB1
:100FC00007D129483830006820F080502649383150
:100FD000086000BFA069002845D02348006800F0E1
:100FE0000C0008285DD0A069022845D100201F49C7
:100FF0000866FFF721FC054606E0FFF71DFC401BD5
:10100000022801D9032035E6174808380068C0F3E4
:1010100040600028F1D1D4E907010843616A40EA41
:1010200081110122A06AC2EB500041EA00412C204C
:10103000005D41EA00600C49091F086001200B496E
:101040000866FFF7F9FB054606E0FFF7F5FB401BD6
:10105000022801D903200DE6034808380068C0F3D0
:1010600040600028F1D049E00838024000004742C3
:10107000800E474200700040002021490866FFF7BB
:10108000DBFB054606E0FFF7D7FB401B022801D932
:101090000320EFE51B480068C0F340600028F2D150
:1010A0002CE0A069012800D1E4E51648001D06687F
:1010B000A069012820D006F48001E06981421BD19B
:1010C00006F03F01206A814216D147F6C0703040D9
:1010D000616AB0EB811F0FD106F440310122A06A92
:1010E000C2EB5000B1EB004F06D106F070612C202E
:1010F000005DB1EB006F01D00120BBE50020B9E538
:10110000000047420038024070B504462546681E7C
:10111000B0F1807F01D301200FE0681E4FF0E02185
:1011200048610F214FF0FF3000F034FB00204FF0FA
:10113000E021886107200861002070BD704770477A
:101140002DE9F84F0446206805682068C6682068C5
:1011500047694FF00009CA4605F00F09B9F1000FC1
:101160000AD105F0200038B106F0200020B1204659
:1011700000F02CFABDE8F88FB9F1000F7CD007F031
:10118000010018B906F49070002875D005F0010030
:1011900030B106F4807018B1206C40F0010020647A
:1011A00005F0040030B107F0010018B1206C40F0E8
:1011B0000200206405F0020030B107F0010018B110
:1011C000206C40F00400206405F0080048B106F0EF
:1011D000200010B907F0010018B1206C40F00800A1
:1011E0002064206C002846D005F0200028B106F0CD
:1011F000200010B1204600F0E9F920684069C0F3F2
:10120000801A206C00F0080010B9BAF1000F2DD040
:10121000204600F095F92068406900F04000402821
:1012200020D100BF00BF2168143151E8001F21F018
:1012300040002168143141E80002002AF3D100BFC8
:10124000A06B50B17548A16B0865A06BFFF77EF9E4
:1012500088B1A06B016D88470DE02046FFF76FFF56
:1012600009E009E02046FFF76AFF04E02046FFF7A7
:1012700066FF002020647DE7206B012876D105F011
:101280001000002872D006F010000028FAD000BF2D
:10129000002000902068006800902068406800905E
:1012A00000BF00BF2068406900F0400040285ED1C8
:1012B000A06B006840681FFA80F8B8F1000F54D0A6
:1012C000A08D404551DDA4F82E80A06BC069B0F51B
:1012D000807F43D000BF00BF21680C3151E8001F60
:1012E00021F4807021680C3141E80002002AF3D11A
:1012F00000BF00BF00BF2168143151E8001F21F07A
:1013000001002168143141E80002002AF3D100BF36
:1013100000BF00BF2168143151E8001F21F04000D8
:101320002168143141E80002002AF3D100BF2020D7
:1013300084F83E000020206300BF00BF21680C310C
:1013400051E8001F21F0100021680C3141E8000233
:10135000002AF3D100BFA06BFFF7A2F8A08DE28DA9
:10136000801A81B22046FFF7E9FE03E740E0A08D36
:10137000E18D401A1FFA80F8E08DC0B3B8F1000F7C
:1013800035D000BF00BF21680C3151E8001F21F4A7
:10139000907021680C3141E80002002AF3D100BFAF
:1013A00000BF00BF2168143151E8001F21F0010087
:1013B0002168143141E80002002AF3D100BF202047
:1013C00084F83E000020206300BF00BF21680C317C
:1013D00051E8001F21F0100021680C3141E80002A3
:1013E000002AF3D100BF41462046FFF7A7FEC1E621
:1013F00005F0800030B106F0800018B1204600F002
:1014000086F9B7E605F0400030B106F0400018B1AB
:10141000204600F0CBF8ADE600BFABE62D15000886
:1014200070B504460D46164694F83E00202816D1A5
:1014300005B10EB9012070BD00BF94F83C00012831
:1014400001D10220F7E7012084F83C0000BF002012
:10145000206332462946204600F034F9EBE70220AB
:10146000E9E7000010B504462049206888423BD1D6
:101470001F48008800F4004088BB1D48008800F425
:10148000804070B11B4800780A2803D0002018491A
:10149000088024E01648008840F400401449088081
:1014A0001DE0144800780D2806D11148008840F44A
:1014B00080400F49088012E00E4800780C490988E6
:1014C000C1F30D010C4A505409480088401C0849DA
:1014D000088008460088C72801DD00200880012216
:1014E00004490648FFF79CFF10BD000000100140B2
:1014F000080000200A0000201C000020E40000205A
:10150000704700BFFEE700BFFEE7704770477047B7
:1015100010B5FFF797F910BD0348006840F470005C
:10152000014908607047000088ED00E070B505468D
:10153000AC6B0020E085E0842046FFF700FE70BD24
:1015400000BF00BF02680C3252E8002F22F49071F5
:1015500002680C3242E80013002BF3D100BF00BF39
:1015600000BF0268143252E8002F22F00101026825
:10157000143242E80013002BF3D100BF016B0129A4
:101580000ED100BF00BF02680C3252E8002F22F0DB
:10159000100102680C3242E80013002BF3D100BFA7
:1015A000202180F83E1000210163704710B50446E9
:1015B0002068C06820F040002168C860202084F8BE
:1015C0003D002046FFF79CFF002010BDF8B5044603
:1015D00094F83E00222873D1A068B0F5805F0CD14A
:1015E000206950B90025A66A20684068C0F3080049
:1015F0003080A06A801CA06215E0A56A0026A06861
:10160000B0F5805F03D0A06828B9206918B92068B8
:101610004068287004E02068406800F07F0028706F
:10162000A06A401CA062E08D401E80B2E0850028C8
:1016300044D12068C06820F020002168C86020687C
:10164000C06820F480702168C8602068406920F07C
:10165000010021684861202084F83E00206B0128A9
:1016600026D10020206300BF00BF21680C3151E863
:10167000001F21F0100021680C3141E80002002A0F
:10168000F3D100BF2068006800F0100010280AD1D4
:1016900000BF00200090206800680090206840682B
:1016A000009000BF00BFA18D2046FFF747FD02E07C
:1016B0002046FFF7D7FE0020F8BD01E00020FBE741
:1016C0000220F9E710B5034699629A85DA85002071
:1016D0001864222083F83E0000BF002083F83C00FD
:1016E00000BF186928B11868C06840F480701C6891
:1016F000E0601868406940F001001C68606118688B
:10170000C06840F020001C68E060002010BD014669
:1017100091F83D00212828D18868B0F5805F0BD171
:10172000086948B90A6A1088C0F308000B68586055
:10173000086A801C086205E00B6A581C0862187869
:101740000B685860C88C401E80B2C88458B90868BD
:10175000C06820F080000B68D8600868C06840F05E
:1017600040000B68D860002070470220FCE70000B2
:1017700010B50248FFF7E4FC10BD0000E4000020B3
:1017800000BFFEE702480068C0F302207047000077
:101790000CED00E010B5002804DB0A07130E054A23
:1017A000135406E00A07140E034A00F00F031B1F30
:1017B000D45410BD00E400E018ED00E000BF704715
:1017C00001490860704700000C00002010B5044675
:1017D0004FF47A7104FB01F000F002F810BD000034
:1017E00070B5034600224FF0E02675690D4E36684D
:1017F00003FB06F44FF0E026B16910E04FF0E0265D
:10180000B06988420BD0884202D20E1A324402E0FC
:101810002E1A0E4432440146A24200D300E0EDE706
:1018200000BF70BD0C00002000B587B0142102A8D5
:10183000FEF7AAFD00BF002001903948006840F083
:101840000100374908600846006800F00100019077
:1018500000BF00BF00BF002001900846006840F0B4
:10186000040008600846006800F00400019000BF12
:1018700000BF00BF002001900846006840F08000D3
:1018800008600846006800F08000019000BF00BFBB
:101890004FF40410039001200490022005900820CA
:1018A000029002A91F48FEF7A7FE0420029002A999
:1018B0001C48FEF7A1FE4FF40050029002A91A48FE
:1018C000FEF79AFE4FF48810039002200490012046
:1018D000029002A91548FEF78FFE0022022109207E
:1018E000FFF711F80920FEF7FEFF00220221082071
:1018F000FFF709F80820FEF7F6FF00220221282052
:10190000FFF701F82820FEF7EEFF00220221062053
:10191000FEF7F9FF0620FEF7E6FF07B000BD000066
:1019200030380240001C0240000802400000024023
:1019300000B587B000BF002001901448006840F057
:101940000200124908600846006800F00200019099
:1019500000BF00BF142102A8FEF716FD032002906D
:101960000120039000200490059002A90848FEF78A
:1019700043FE02A90648FEF73FFE002000F00AF8E9
:10198000012000F007F807B000BD00003038024029
:101990000004024010B5044614B1012C0CD105E03E
:1019A000012202210648FEF741FF06E0012211460E
:1019B0000348FEF73BFF00E000BF00BF10BD000082
:1019C0000004024010B5044614B1012C0AD104E011
:1019D00002210648FEF720FF05E001210348FEF73B
:1019E0001BFF00E000BF00BF10BD0000000402406C
:1019F000FEF734FF0823022219214FF4B47000F0DF
:101A000015F8B420FFF7DCFEFFF792FFFFF70CFF9D
:101A100002E06420FFF7DAFEFBE700004A0A520208
:101A20000243014B1A60704708ED00E02DE9F041D8
:101A300092B080460D4616461F46002414210DA87C
:101A4000FEF7A2FC302101A8FEF79EFC00BF00209B
:101A500000902A48006840F08050284908600846F5
:101A6000006800F08050009000BF00BF00BF002061
:101A700000902348006840F440402149086008462F
:101A8000006800F44040009000BF00BF01200190BA
:101A9000000402900220079041050891CDF82880AB
:101AA00009950B960C9701A8FFF7E0F804461CB1C6
:101AB000012012B0BDE8F081FEF778FF04460CB1BA
:101AC0000120F6E70F200D9002200E9000200F90CD
:101AD0004FF4A05010904FF48050119005210DA8A4
:101AE000FEF7AAFF04460CB10120E2E700214FF007
:101AF0000060FFF793FF0020DBE700004038024062
:101B0000007000404FF04070E1EE100A7047000096
:101B1000000000000000010203040607080900009D
:101B20000000010203040000481B00080000002020
:101B30001C000000E8010008641B00081C000020D5
:101B40006C090000040200080024F40000000000FA
:101B50000000000000000000000000001000000075
:041B60000100000080
:04000005080001AD41
:00000001FF
